:020F08008A2F2E
:100F120009000313831670308F00031783168801AC
:100F220089010313831686010313831286010313B7
:100F32008316870103138312870106118612071491
:100F4200871506148615F4270330A20006108611B1
:100F5200E72706148615E727A20BA72F061086118E
:100F620086140616FA27861006120615861607102C
:100F7200871106178714F4270330A200061387107F
:100F8200E72706178714E727A20BBF2F0613871040
:100F920086170715FA2786130711071487150611F6
:100FA200861206148615F4270330A2000610861155
:100FB200E72706148615E727A20BD72F06108611FE
:100FC20086140616FA27861006129E2F0230A300F8
:100FD200FA30A000FA30A100A10BED2FA00BEB2FED
:100FE200A30BE92F08000830A200E727A20BF62F77
:0E0FF20008000630A200E727A20BFC2F080023
:04400E00E423FF3F69
:00000001FF
