:040F6C00C22FE12F80
:020F780009006E
:100F820009000313831670308F000317831688013C
:100F92008901031383168601031383128601061443
:100FA2008610D72706108614D727D02FFA30A20032
:100FB200FA30A3000000A30BDB2FA20BD92F0800ED
:100FC2000313831670308F0003178316880189017B
:100FD20003138316860103138312860106148610F7
:100FE200F62706108614F627EF2FFA30A000FA3003
:0E0FF200A1000000A10BFA2FA00BF82F0800A1
:04400E00E423FF3F69
:00000001FF
